{
  "contractName": "FileStorage",
  "abi": [
    {
      "anonymous": false,
      "inputs": [
        {
          "indexed": true,
          "internalType": "bytes32",
          "name": "fileHash",
          "type": "bytes32"
        },
        {
          "indexed": false,
          "internalType": "uint256",
          "name": "timestamp",
          "type": "uint256"
        },
        {
          "indexed": false,
          "internalType": "string",
          "name": "uploader",
          "type": "string"
        },
        {
          "indexed": false,
          "internalType": "string",
          "name": "fileName",
          "type": "string"
        }
      ],
      "name": "FileUploaded",
      "type": "event"
    },
    {
      "constant": true,
      "inputs": [
        {
          "internalType": "bytes32",
          "name": "",
          "type": "bytes32"
        }
      ],
      "name": "fileInfos",
      "outputs": [
        {
          "internalType": "uint256",
          "name": "timestamp",
          "type": "uint256"
        },
        {
          "internalType": "string",
          "name": "uploader",
          "type": "string"
        },
        {
          "internalType": "string",
          "name": "fileName",
          "type": "string"
        },
        {
          "internalType": "bytes32",
          "name": "fileHash",
          "type": "bytes32"
        }
      ],
      "payable": false,
      "stateMutability": "view",
      "type": "function"
    },
    {
      "constant": false,
      "inputs": [
        {
          "internalType": "bytes32",
          "name": "fileHash",
          "type": "bytes32"
        },
        {
          "internalType": "string",
          "name": "userName",
          "type": "string"
        },
        {
          "internalType": "string",
          "name": "fileName",
          "type": "string"
        },
        {
          "internalType": "uint256",
          "name": "timestamp",
          "type": "uint256"
        }
      ],
      "name": "uploadFile",
      "outputs": [
        {
          "internalType": "bytes32",
          "name": "",
          "type": "bytes32"
        }
      ],
      "payable": false,
      "stateMutability": "nonpayable",
      "type": "function"
    },
    {
      "constant": true,
      "inputs": [
        {
          "internalType": "bytes32",
          "name": "fileHash",
          "type": "bytes32"
        }
      ],
      "name": "getFileInfoByHash",
      "outputs": [
        {
          "internalType": "string",
          "name": "",
          "type": "string"
        },
        {
          "internalType": "string",
          "name": "",
          "type": "string"
        },
        {
          "internalType": "bytes32",
          "name": "",
          "type": "bytes32"
        },
        {
          "internalType": "uint256",
          "name": "",
          "type": "uint256"
        }
      ],
      "payable": false,
      "stateMutability": "view",
      "type": "function"
    },
    {
      "constant": true,
      "inputs": [
        {
          "internalType": "bytes",
          "name": "file",
          "type": "bytes"
        }
      ],
      "name": "getFileHash",
      "outputs": [
        {
          "internalType": "bytes32",
          "name": "",
          "type": "bytes32"
        }
      ],
      "payable": false,
      "stateMutability": "pure",
      "type": "function"
    }
  ],
  "bytecode": "0x608060405234801561001057600080fd5b50610bb5806100206000396000f3fe608060405234801561001057600080fd5b506004361061004c5760003560e01c80631ea71c0414610051578063b7c9b65714610172578063d961e0d8146102ec578063e592f8e31461040d575b600080fd5b61007d6004803603602081101561006757600080fd5b81019080803590602001909291905050506104dc565b604051808060200180602001858152602001848152602001838103835287818151815260200191508051906020019080838360005b838110156100cd5780820151818401526020810190506100b2565b50505050905090810190601f1680156100fa5780820380516001836020036101000a031916815260200191505b50838103825286818151815260200191508051906020019080838360005b83811015610133578082015181840152602081019050610118565b50505050905090810190601f1680156101605780820380516001836020036101000a031916815260200191505b50965050505050505060405180910390f35b6102d66004803603608081101561018857600080fd5b8101908080359060200190929190803590602001906401000000008111156101af57600080fd5b8201836020820111156101c157600080fd5b803590602001918460018302840111640100000000831117156101e357600080fd5b91908080601f016020809104026020016040519081016040528093929190818152602001838380828437600081840152601f19601f8201169050808301925050505050505091929192908035906020019064010000000081111561024657600080fd5b82018360208201111561025857600080fd5b8035906020019184600183028401116401000000008311171561027a57600080fd5b91908080601f016020809104026020016040519081016040528093929190818152602001838380828437600081840152601f19601f82011690508083019250505050505050919291929080359060200190929190505050610706565b6040518082815260200191505060405180910390f35b6103186004803603602081101561030257600080fd5b810190808035906020019092919050505061093f565b604051808581526020018060200180602001848152602001838103835286818151815260200191508051906020019080838360005b8381101561036857808201518184015260208101905061034d565b50505050905090810190601f1680156103955780820380516001836020036101000a031916815260200191505b50838103825285818151815260200191508051906020019080838360005b838110156103ce5780820151818401526020810190506103b3565b50505050905090810190601f1680156103fb5780820380516001836020036101000a031916815260200191505b50965050505050505060405180910390f35b6104c66004803603602081101561042357600080fd5b810190808035906020019064010000000081111561044057600080fd5b82018360208201111561045257600080fd5b8035906020019184600183028401116401000000008311171561047457600080fd5b91908080601f016020809104026020016040519081016040528093929190818152602001838380828437600081840152601f19601f820116905080830192505050505050509192919290505050610a9f565b6040518082815260200191505060405180910390f35b6060806000806104ea610ab0565b60008087815260200190815260200160002060405180608001604052908160008201548152602001600182018054600181600116156101000203166002900480601f0160208091040260200160405190810160405280929190818152602001828054600181600116156101000203166002900480156105aa5780601f1061057f576101008083540402835291602001916105aa565b820191906000526020600020905b81548152906001019060200180831161058d57829003601f168201915b50505050508152602001600282018054600181600116156101000203166002900480601f01602080910402602001604051908101604052809291908181526020018280546001816001161561010002031660029004801561064c5780601f106106215761010080835404028352916020019161064c565b820191906000526020600020905b81548152906001019060200180831161062f57829003601f168201915b5050505050815260200160038201548152505090506000816000015114156106dc576040517f08c379a000000000000000000000000000000000000000000000000000000000815260040180806020018281038252600e8152602001807f46696c65206e6f7420666f756e6400000000000000000000000000000000000081525060200191505060405180910390fd5b80602001518160400151826060015183600001518393508292509450945094509450509193509193565b6000806000808781526020019081526020016000206000015414610792576040517f08c379a00000000000000000000000000000000000000000000000000000000081526004018080602001828103825260138152602001807f46696c6520616c7265616479206578697374730000000000000000000000000081525060200191505060405180910390fd5b61079a610ab0565b6040518060800160405280848152602001868152602001858152602001878152509050806000808881526020019081526020016000206000820151816000015560208201518160010190805190602001906107f6929190610adb565b506040820151816002019080519060200190610813929190610adb565b5060608201518160030155905050857f516e17b31966d3754114b89f61a0d744ad9b06b157c8b332bea0adce427fe04f848787604051808481526020018060200180602001838103835285818151815260200191508051906020019080838360005b83811015610890578082015181840152602081019050610875565b50505050905090810190601f1680156108bd5780820380516001836020036101000a031916815260200191505b50838103825284818151815260200191508051906020019080838360005b838110156108f65780820151818401526020810190506108db565b50505050905090810190601f1680156109235780820380516001836020036101000a031916815260200191505b509550505050505060405180910390a285915050949350505050565b6000602052806000526040600020600091509050806000015490806001018054600181600116156101000203166002900480601f0160208091040260200160405190810160405280929190818152602001828054600181600116156101000203166002900480156109f15780601f106109c6576101008083540402835291602001916109f1565b820191906000526020600020905b8154815290600101906020018083116109d457829003601f168201915b505050505090806002018054600181600116156101000203166002900480601f016020809104026020016040519081016040528092919081815260200182805460018160011615610100020316600290048015610a8f5780601f10610a6457610100808354040283529160200191610a8f565b820191906000526020600020905b815481529060010190602001808311610a7257829003601f168201915b5050505050908060030154905084565b600081805190602001209050919050565b6040518060800160405280600081526020016060815260200160608152602001600080191681525090565b828054600181600116156101000203166002900490600052602060002090601f016020900481019282601f10610b1c57805160ff1916838001178555610b4a565b82800160010185558215610b4a579182015b82811115610b49578251825591602001919060010190610b2e565b5b509050610b579190610b5b565b5090565b610b7d91905b80821115610b79576000816000905550600101610b61565b5090565b9056fea265627a7a72315820c6f71db330b64f7fa483e27ce1fdbc878429b1d3c3125affcd95860ba06f5a7664736f6c63430005100032",
  "source": "// SPDX-License-Identifier: MIT\npragma solidity >=0.4.22 <0.9.0;\n\ncontract FileStorage {\n    struct FileInfo {\n        uint256 timestamp;\n        string uploader;\n        string fileName;\n        bytes32 fileHash;\n    }\n\n    mapping(bytes32 => FileInfo) public fileInfos;\n\n    event FileUploaded(bytes32 indexed fileHash, uint256 timestamp, string uploader, string fileName);\n\n    function uploadFile(bytes32 fileHash, string memory userName, string memory fileName, uint256 timestamp) public returns (bytes32) {\n        require(fileInfos[fileHash].timestamp == 0, \"File already exists\");\n\n        FileInfo memory newFileInfo = FileInfo(timestamp, userName, fileName, fileHash);\n        fileInfos[fileHash] = newFileInfo;\n\n        emit FileUploaded(fileHash, timestamp, userName, fileName);\n\n        return fileHash;\n    }\n\n    function getFileInfoByHash(bytes32 fileHash) public view returns (string memory, string memory, bytes32, uint256) {\n        FileInfo memory info = fileInfos[fileHash];\n        require(info.timestamp != 0, \"File not found\");\n\n        return (info.uploader, info.fileName, info.fileHash, info.timestamp);\n    }\n\n    function getFileHash(bytes memory file) public pure returns (bytes32) {\n        return keccak256(file);\n    }\n}\n",
  "sourcePath": "/Users/a./WebstormProjects/client-server-app/contracts/FileStorage.sol",
  "compiler": {
    "name": "solc",
    "version": "0.5.16+commit.9c3226ce.Emscripten.clang"
  },
  "schemaVersion": "3.4.16",
  "updatedAt": "2024-06-03T09:32:28.968Z",
  "networkType": "ethereum",
  "devdoc": {
    "methods": {}
  },
  "userdoc": {
    "methods": {}
  }
}