{
  "contractName": "GenerateSeed",
  "abi": [
    {
      "inputs": [],
      "payable": false,
      "stateMutability": "nonpayable",
      "type": "constructor"
    },
    {
      "anonymous": false,
      "inputs": [
        {
          "indexed": false,
          "internalType": "string",
          "name": "seed",
          "type": "string"
        }
      ],
      "name": "SeedGenerated",
      "type": "event"
    },
    {
      "constant": true,
      "inputs": [],
      "name": "owner",
      "outputs": [
        {
          "internalType": "address",
          "name": "",
          "type": "address"
        }
      ],
      "payable": false,
      "stateMutability": "view",
      "type": "function"
    },
    {
      "constant": false,
      "inputs": [
        {
          "internalType": "address payable",
          "name": "_to",
          "type": "address"
        },
        {
          "internalType": "uint256",
          "name": "_amount",
          "type": "uint256"
        }
      ],
      "name": "sendEther",
      "outputs": [],
      "payable": false,
      "stateMutability": "nonpayable",
      "type": "function"
    },
    {
      "constant": false,
      "inputs": [],
      "name": "generateSeed",
      "outputs": [
        {
          "internalType": "string",
          "name": "",
          "type": "string"
        }
      ],
      "payable": false,
      "stateMutability": "nonpayable",
      "type": "function"
    }
  ],
  "bytecode": "0x608060405234801561001057600080fd5b50336000806101000a81548173ffffffffffffffffffffffffffffffffffffffff021916908373ffffffffffffffffffffffffffffffffffffffff160217905550610dfc806100606000396000f3fe608060405234801561001057600080fd5b50600436106100415760003560e01c8063399da585146100465780638da5cb5b146100c9578063c1756a2c14610113575b600080fd5b61004e610161565b6040518080602001828103825283818151815260200191508051906020019080838360005b8381101561008e578082015181840152602081019050610073565b50505050905090810190601f1680156100bb5780820380516001836020036101000a031916815260200191505b509250505060405180910390f35b6100d1610bf7565b604051808273ffffffffffffffffffffffffffffffffffffffff1673ffffffffffffffffffffffffffffffffffffffff16815260200191505060405180910390f35b61015f6004803603604081101561012957600080fd5b81019080803573ffffffffffffffffffffffffffffffffffffffff16906020019092919080359060200190929190505050610c1c565b005b606061016b610d9f565b6040518061018001604052806040518060400160405280600581526020017f776f72643100000000000000000000000000000000000000000000000000000081525081526020016040518060400160405280600581526020017f776f72643200000000000000000000000000000000000000000000000000000081525081526020016040518060400160405280600581526020017f776f72643300000000000000000000000000000000000000000000000000000081525081526020016040518060400160405280600581526020017f776f72643400000000000000000000000000000000000000000000000000000081525081526020016040518060400160405280600581526020017f776f72643500000000000000000000000000000000000000000000000000000081525081526020016040518060400160405280600581526020017f776f72643600000000000000000000000000000000000000000000000000000081525081526020016040518060400160405280600581526020017f776f72643700000000000000000000000000000000000000000000000000000081525081526020016040518060400160405280600581526020017f776f72643800000000000000000000000000000000000000000000000000000081525081526020016040518060400160405280600581526020017f776f72643900000000000000000000000000000000000000000000000000000081525081526020016040518060400160405280600681526020017f776f72643130000000000000000000000000000000000000000000000000000081525081526020016040518060400160405280600681526020017f776f72643131000000000000000000000000000000000000000000000000000081525081526020016040518060400160405280600681526020017f776f7264313200000000000000000000000000000000000000000000000000008152508152509050610443610d9f565b60008090505b600c8110156104cd576000600c4244846040516020018084815260200183815260200182815260200193505050506040516020818303038152906040528051906020012060001c8161049757fe5b0690508381600c81106104a657fe5b60200201518383600c81106104b757fe5b6020020181905250508080600101915050610449565b506060816000600c81106104dd57fe5b6020020151826001600c81106104ef57fe5b6020020151836002600c811061050157fe5b6020020151846003600c811061051357fe5b6020020151856004600c811061052557fe5b6020020151866005600c811061053757fe5b6020020151876006600c811061054957fe5b6020020151886007600c811061055b57fe5b6020020151896008600c811061056d57fe5b60200201518a6009600c811061057f57fe5b60200201518b600a600c811061059157fe5b60200201518c600b600c81106105a357fe5b6020020151604051602001808d805190602001908083835b602083106105de57805182526020820191506020810190506020830392506105bb565b6001836020036101000a038019825116818451168082178552505050505050905001807f20000000000000000000000000000000000000000000000000000000000000008152506001018c805190602001908083835b602083106106575780518252602082019150602081019050602083039250610634565b6001836020036101000a038019825116818451168082178552505050505050905001807f20000000000000000000000000000000000000000000000000000000000000008152506001018b805190602001908083835b602083106106d057805182526020820191506020810190506020830392506106ad565b6001836020036101000a038019825116818451168082178552505050505050905001807f20000000000000000000000000000000000000000000000000000000000000008152506001018a805190602001908083835b602083106107495780518252602082019150602081019050602083039250610726565b6001836020036101000a038019825116818451168082178552505050505050905001807f200000000000000000000000000000000000000000000000000000000000000081525060010189805190602001908083835b602083106107c2578051825260208201915060208101905060208303925061079f565b6001836020036101000a038019825116818451168082178552505050505050905001807f200000000000000000000000000000000000000000000000000000000000000081525060010188805190602001908083835b6020831061083b5780518252602082019150602081019050602083039250610818565b6001836020036101000a038019825116818451168082178552505050505050905001807f200000000000000000000000000000000000000000000000000000000000000081525060010187805190602001908083835b602083106108b45780518252602082019150602081019050602083039250610891565b6001836020036101000a038019825116818451168082178552505050505050905001807f200000000000000000000000000000000000000000000000000000000000000081525060010186805190602001908083835b6020831061092d578051825260208201915060208101905060208303925061090a565b6001836020036101000a038019825116818451168082178552505050505050905001807f200000000000000000000000000000000000000000000000000000000000000081525060010185805190602001908083835b602083106109a65780518252602082019150602081019050602083039250610983565b6001836020036101000a038019825116818451168082178552505050505050905001807f200000000000000000000000000000000000000000000000000000000000000081525060010184805190602001908083835b60208310610a1f57805182526020820191506020810190506020830392506109fc565b6001836020036101000a038019825116818451168082178552505050505050905001807f200000000000000000000000000000000000000000000000000000000000000081525060010183805190602001908083835b60208310610a985780518252602082019150602081019050602083039250610a75565b6001836020036101000a038019825116818451168082178552505050505050905001807f200000000000000000000000000000000000000000000000000000000000000081525060010182805190602001908083835b60208310610b115780518252602082019150602081019050602083039250610aee565b6001836020036101000a0380198251168184511680821785525050505050509050019c5050505050505050505050505060405160208183030381529060405290507f78fa93f36ed53cb8f43ac86ef0407e126d629df2ef297dad8b100dc38b8df327816040518080602001828103825283818151815260200191508051906020019080838360005b83811015610bb4578082015181840152602081019050610b99565b50505050905090810190601f168015610be15780820380516001836020036101000a031916815260200191505b509250505060405180910390a180935050505090565b6000809054906101000a900473ffffffffffffffffffffffffffffffffffffffff1681565b6000809054906101000a900473ffffffffffffffffffffffffffffffffffffffff1673ffffffffffffffffffffffffffffffffffffffff163373ffffffffffffffffffffffffffffffffffffffff1614610cde576040517f08c379a00000000000000000000000000000000000000000000000000000000081526004018080602001828103825260158152602001807f596f7520617265206e6f7420746865206f776e6572000000000000000000000081525060200191505060405180910390fd5b80471015610d54576040517f08c379a00000000000000000000000000000000000000000000000000000000081526004018080602001828103825260148152602001807f496e73756666696369656e742062616c616e636500000000000000000000000081525060200191505060405180910390fd5b8173ffffffffffffffffffffffffffffffffffffffff166108fc829081150290604051600060405180830381858888f19350505050158015610d9a573d6000803e3d6000fd5b505050565b604051806101800160405280600c905b6060815260200190600190039081610daf579050509056fea265627a7a72315820fcc7d8a9cc124e946275dbac7431e170556269927cec5c14846462edb079d5f264736f6c63430005100032",
  "source": "// SPDX-License-Identifier: MIT\npragma solidity >=0.4.22 <0.9.0;\n\ncontract GenerateSeed {\n    address public owner;\n\n    constructor() public {\n        owner = msg.sender;\n    }\n\n    function sendEther(address payable _to, uint256 _amount) external {\n        require(msg.sender == owner, \"You are not the owner\");\n        require(address(this).balance >= _amount, \"Insufficient balance\");\n\n        _to.transfer(_amount);\n    }\n\n    event SeedGenerated(string seed);\n\n    function generateSeed() external returns (string memory) {\n        string[12] memory wordList = [\"word1\", \"word2\", \"word3\", \"word4\", \"word5\", \"word6\", \"word7\", \"word8\", \"word9\", \"word10\", \"word11\", \"word12\"];\n        string[12] memory seed;\n\n        for (uint i = 0; i < 12; i++) {\n            uint randomIndex = uint(keccak256(abi.encodePacked(block.timestamp, block.difficulty, i))) % 12;\n            seed[i] = wordList[randomIndex];\n        }\n\n        string memory seedString = string(abi.encodePacked(seed[0], \" \", seed[1], \" \", seed[2], \" \", seed[3], \" \", seed[4], \" \", seed[5], \" \", seed[6], \" \", seed[7], \" \", seed[8], \" \", seed[9], \" \", seed[10], \" \", seed[11]));\n        emit SeedGenerated(seedString);\n        return seedString;\n    }\n}\n",
  "sourcePath": "/Users/a./WebstormProjects/ethereum-generate-seed-dapp/contracts/GenerateSeed.sol",
  "compiler": {
    "name": "solc",
    "version": "0.5.16+commit.9c3226ce.Emscripten.clang"
  },
  "schemaVersion": "3.4.16",
  "updatedAt": "2024-06-03T11:46:26.463Z",
  "networkType": "ethereum",
  "devdoc": {
    "methods": {}
  },
  "userdoc": {
    "methods": {}
  }
}